:040000000DEF00F010
:040008009AEF0DF06E
:06001800FF000EEF0EF0E8
:1016000000BE1B0000000000006E1C000000000E69
:10161000196E300E186E000E1B6E000E1A6E29EF3A
:101620000BF07D0E066E05681AC507F51BC508F59B
:10163000000E0A6E000E096ECAEC0DF00D0E0B6E58
:10164000FC0EE82EFED70B2EFCD718501A26195088
:101650001B221A500B6E1B500C6E0D6A0E6A18502E
:101660000F6E1950106E116A126A0F50FF08136E38
:10167000FB0E1054146E000E1154156E000E125411
:10168000166E0B50135C0C5014580D501558165014
:10169000800A176E0E50800A1758D8B052EF0BF020
:1016A00054EF0BF011EF0BF0FB0E1B6E1A6871EF8D
:1016B0000BF01AC505F51BC506F5FB0E086E07688D
:1016C000000E0A6E000E096ECAEC0DF00D0E0B6EC8
:1016D000FC0EE82EFED70B2EFCD718501A5E1950C0
:1016E0001B5A18501A5C19501B58D8B07AEF0BF0DF
:1016F0007CEF0BF059EF0BF0000E066E000E056E3E
:10170000FB0E086E0768000E0A6E000E096ECAEC2A
:101710000DF00D0E0B6EFC0EE82EFED70B2EFCD737
:10172000000E1B6E000E1A6EAEEF0BF0000E066E72
:10173000000E056EFB0E086E07681AC509F51BC57D
:101740000AF5CAEC0DF00D0E0B6EFC0EE82EFED75E
:101750000B2EFCD718501A2619501B221A500B6E4C
:101760001B500C6E0D6A0E6A18500F6E1950106ED9
:10177000116A126A0F50FF08136EFB0E1054146E9C
:10178000000E1154156E000E1254166E0B50135CA1
:101790000C5014580D5015581650800A176E0E50E4
:1017A000800A1758D8B0D7EF0BF0D9EF0BF096EFAF
:1017B0000BF0FB0E1B6E1A68F6EF0BF0000E066EB8
:1017C000000E056E1AC507F51BC508F5FB0E0A6E5F
:1017D0000968CAEC0DF00D0E0B6EFC0EE82EFED75C
:1017E0000B2EFCD718501A5E19501B5A18501A5C51
:1017F00019501B58D8B0FFEF0BF001EF0CF0DEEFE3
:101800000BF0000E066E000E056E000E086E000E48
:10181000076EFB0E0A6E0968CAEC0DF00D0E0B6E1A
:10182000FC0EE82EFED70B2EFCD7000E1B6E000E12
:101830001A6E33EF0CF01AC505F51BC506F5000E40
:10184000086E000E076EFB0E0A6E0968CAEC0DF0FA
:101850000D0E0B6EFC0EE82EFED70B2EFCD718508B
:101860001A2619501B221A500B6E1B500C6E0D6A53
:101870000E6A18500F6E1950106E116A126A0F50CE
:10188000FF08136EFB0E1054146E000E1154156EEB
:10189000000E1254166E0B50135C0C5014580D5061
:1018A00015581650800A176E0E50800A1758D8B077
:1018B0005CEF0CF05EEF0CF01BEF0CF0FB0E1B6E00
:1018C0001A687BEF0CF0FB0E066E0568000E086EC2
:1018D000000E076E1AC509F51BC50AF5CAEC0DF016
:1018E0000D0E0B6EFC0EE82EFED70B2EFCD71850FB
:1018F0001A5E19501B5A18501A5C19501B58D8B050
:1019000084EF0CF086EF0CF063EF0CF0FB0E066E2C
:101910000568000E086E000E076E000E0A6E000EBF
:10192000096ECAEC0DF00D0E0B6EFC0EE82EFED704
:101930000B2EFCD7000E066E000E056E000E086E14
:10194000000E076E000E0A6E000E096ECAEC0DF056
:1019500012000101406B416B426B436B446B456B62
:101960000401026B0A6B126B1A6B226B2A6B01016A
:101970004869F60E496FFE0E4A6F4B690F0E4C6FA9
:101980004D6904010069086910691869070E206F24
:101990002869016B096B116B196B216B296B03694A
:1019A0000B6913691B69070E236F2B6904690C69A6
:1019B00014691C690F0E246F2C690201866B856BFC
:1019C000886B876B110E096F0F0E116F130E0C6F62
:1019D0000401056B066B076B3D6B3E6B3F6B0D6B3C
:1019E0000E6B0F6B156B166B176B256B266B276BCE
:1019F00012007E6A020E7F6E806A8168F90E826E26
:101A0000836A846A856A866A886A896A7D0E8A6EB4
:101A10008B6A7D0E8C6EB99CB99E85908592AE9E28
:101A2000AE9C000E036E000E046E41EC0EF0000E34
:101A3000036E000E046E3CEC0EF0000E036E000E02
:101A4000046E46EC0EF0800E876E12006F6A020E76
:101A5000706E716A7268F90E736E746A756A766A6E
:101A6000776A796A7A6A7D0E7B6E7C6A7D0E7D6EFE
:101A7000B79CB79E76907692AC9EAC9C000E036E9F
:101A8000000E046E50EC0EF0000E036E000E046E9D
:101A90004BEC0EF0000E036E000E046E55EC0EF0D3
:101AA000800E786E1200606A020E616E626A636870
:101AB000F90E646E656A666A676A686A6A6A6B6A62
:101AC0007D0E6C6E6D6A7D0E6E6EB69CB69E6790D6
:101AD0006792AB9EAB9C000E036E000E046E5FEC33
:101AE0000EF0000E036E000E046E5AEC0EF0000EA7
:101AF000036E000E046E64EC0EF0800E696E120030
:101B0000D69AB390D680000E036E000E046E73EC6E
:101B10000EF0B890D682000E036E000E046E6EECCE
:101B20000EF0BC90D684000E036E000E046E69ECBD
:101B30000EF01200FAC401F5FBC402F5AAA6A3EF49
:101B40000DF0A5EF0DF0AEEF0DF0B5A6AAEF0DF07C
:101B5000ACEF0DF0AEEF0DF0B3EC0DF002C5FBF401
:101B600001C5FAF41100B5961C501D10D8B4BBEF96
:101B70000DF0BDEF0DF0C9EF0DF002D8C9EF0DF07B
:101B80000500FA6E1C50FD6E1D50FE6EFF6AFA5085
:101B90001200120005C503F506C504F528EC0EF089
:101BA00007C503F508C504F52DEC0EF009C503F5CE
:101BB0000AC504F532EC0EF021EC0EF01200010E15
:101BC0000301216F206B226B100E1E6F1D6BFC0E2C
:101BD000036E1C0E046E37EC0EF0B596AA86BF0E8F
:101BE00003011F6F120002EC0EF0A9EC0CF053EC95
:101BF0000DF026EC0DF0F9EC0CF0DFEC0DF080ECC4
:101C00000DF01200600E0001AD6FAF6BB36B080EEC
:101C1000B16FB06BAC6B0401586B12000401080E7D
:101C20005D6F000E5E6F000E5F6F000118EF0EF02B
:101C3000F3EC0DF0D68E07EC0BF01BEF0EF00DEF72
:101C400000F07CEC0EF07AEC0EF078EC0EF0120066
:101C500003C589F404508A6E120003C57AF4045057
:101C60007B6E120003C56BF404506C6E120003C54A
:101C70001CF504C51DF5120003C52CF504C52DF592
:101C8000120003C52EF504C52FF5120003C52AF571
:101C900004C52BF5120003C526F504C527F512006F
:101CA00003C528F504C529F5120003C524F504C5AC
:101CB00025F5120003C532F504C533F5120003C53E
:101CC00034F504C535F5120003C530F504C531F50A
:101CD000120003C51EF504C51FF5120003C520F54B
:101CE00004C521F5120003C522F504C523F5120031
:0E1CF0008784120078841200698412001200AA
:020000040030CA
:0B0000008FFFF7FF9FFF7FFFFFFFFF58
:00000001FF
