:040000000DEF00F010
:040008001DEF0CF0EC
:06001800FF0091EF0CF067
:1016000000C4180000000000006219000000010181
:10161000406B416B426B436B446B456B0401026B47
:101620000A6B126B1A6B226B2A6B01014869F60E6A
:10163000496FFE0E4A6F4B690F0E4C6F4D690401E6
:101640000069086910691869070E206F2869016B25
:10165000096B116B196B216B296B03690B6913699A
:101660001B69070E236F2B6904690C6914691C69D7
:101670000F0E246F2C690201866B856B886B876B5C
:10168000110E096F0F0E116F130E0C6F0401056B15
:10169000066B076B3D6B3E6B3F6B0D6B0E6B0F6B01
:1016A000156B166B176B256B266B276B12007E6A0A
:1016B000020E7F6E806A8168F90E826E836A846A88
:1016C000856A866A886A896A7D0E8A6E8B6A7D0E53
:1016D0008C6EB99CB99E85908592AE9EAE9C000E94
:1016E0001D6E000E1E6EBBEC0CF0000E1D6E000E8B
:1016F0001E6EB6EC0CF0000E1D6E000E1E6EC0ECE1
:101700000CF0800E876E12006F6A020E706E716AA6
:101710007268F90E736E746A756A766A776A796AA6
:101720007A6A7D0E7B6E7C6A7D0E7D6EB79CB79E5D
:1017300076907692AC9EAC9C000E1D6E000E1E6ED6
:10174000CAEC0CF0000E1D6E000E1E6EC5EC0CF007
:10175000000E1D6E000E1E6ECFEC0CF0800E786E2B
:101760001200606A020E616E626A6368F90E646E4E
:10177000656A666A676A686A6A6A6B6A7D0E6C6E19
:101780006D6A7D0E6E6EB69CB69E67906792AB9E3C
:10179000AB9C000E1D6E000E1E6ED9EC0CF0000E00
:1017A0001D6E000E1E6ED4EC0CF0000E1D6E000EB1
:1017B0001E6EDEEC0CF0800E696E120076EC0CF002
:1017C000D68EFB0E206E1F68000E226E000E216E5C
:1017D000000E246E000E236E4DEC0CF0C80E00D0EF
:1017E000E82EFDD7000E206E000E1F6EFB0E226E3F
:1017F0002168000E246E000E236E4DEC0CF0E1EF1C
:101800000BF00DEF00F0D69AB390D680000E1D6E4F
:10181000000E1E6EEDEC0CF0B890D682000E1D6E20
:10182000000E1E6EE8EC0CF0BC90D684000E1D6E0F
:10183000000E1E6EE3EC0CF01200FAC41BF5FBC4A4
:101840001CF5AAA626EF0CF028EF0CF031EF0CF0F7
:10185000B5A62DEF0CF02FEF0CF031EF0CF036ECBD
:101860000CF01CC5FBF41BC5FAF41100B596015031
:101870000210D8B43EEF0CF040EF0CF04CEF0CF03F
:1018800002D84CEF0CF00500FA6E0150FD6E0250CC
:10189000FE6EFF6AFA50120012001FC51DF520C52A
:1018A0001EF5A2EC0CF021C51DF522C51EF5A7EC16
:1018B0000CF023C51DF524C51EF5ACEC0CF09BEC1B
:1018C0000CF01200010E0301216F206B226B100E31
:1018D0001E6F1D6BF00E1D6E190E1E6EB1EC0CF01E
:1018E000B596AA86BF0E03011F6F120085EC0CF09F
:1018F00007EC0BF0B1EC0BF084EC0BF057EC0BF0B9
:1019000062EC0CF003EC0CF01200600E0001AD6F05
:10191000AF6BB36B080EB16FB06BAC6B0401586B5F
:1019200012000401080E5D6F000E5E6F000E5F6F07
:101930000001DEEF0BF0F6EC0CF0F4EC0CF0F2EC46
:101940000CF012001DC589F41E508A6E12001DC5D0
:101950007AF41E507B6E12001DC56BF41E506C6E27
:1019600012001DC501F51EC502F512001DC511F5B9
:101970001EC512F512001DC513F51EC514F5120083
:101980001DC50FF51EC510F512001DC50BF51EC5B2
:101990000CF512001DC50DF51EC50EF512001DC576
:1019A00009F51EC50AF512001DC517F51EC518F567
:1019B00012001DC519F51EC51AF512001DC515F535
:1019C0001EC516F512001DC503F51EC504F512004F
:1019D0001DC505F51EC506F512001DC507F51EC57A
:1019E00008F51200878412007884120069841200BE
:0219F0001200E3
:020000040030CA
:0B0000008FFFF7FF9FFF7FFFFFFFFF58
:00000001FF
